{
  "contractName": "CDE",
  "abi": [
    {
      "constant": true,
      "inputs": [],
      "name": "name",
      "outputs": [
        {
          "name": "",
          "type": "string"
        }
      ],
      "payable": false,
      "stateMutability": "view",
      "type": "function",
      "signature": "0x06fdde03"
    },
    {
      "constant": true,
      "inputs": [],
      "name": "fileCount",
      "outputs": [
        {
          "name": "",
          "type": "uint256"
        }
      ],
      "payable": false,
      "stateMutability": "view",
      "type": "function",
      "signature": "0x43953519"
    },
    {
      "constant": true,
      "inputs": [
        {
          "name": "",
          "type": "uint256"
        }
      ],
      "name": "files",
      "outputs": [
        {
          "name": "name",
          "type": "string"
        },
        {
          "name": "hash",
          "type": "string"
        },
        {
          "name": "description",
          "type": "string"
        },
        {
          "name": "version",
          "type": "uint256"
        },
        {
          "name": "url",
          "type": "string"
        },
        {
          "name": "uploader",
          "type": "address"
        }
      ],
      "payable": false,
      "stateMutability": "view",
      "type": "function",
      "signature": "0xf4c714b4"
    },
    {
      "inputs": [],
      "payable": false,
      "stateMutability": "nonpayable",
      "type": "constructor",
      "signature": "constructor"
    },
    {
      "constant": false,
      "inputs": [
        {
          "name": "_name",
          "type": "string"
        },
        {
          "name": "_hash",
          "type": "string"
        },
        {
          "name": "_description",
          "type": "string"
        },
        {
          "name": "_url",
          "type": "string"
        }
      ],
      "name": "registerFile",
      "outputs": [],
      "payable": false,
      "stateMutability": "nonpayable",
      "type": "function",
      "signature": "0xfd1cd6dc"
    }
  ],
  "bytecode": "0x6080604052600060015534801561001557600080fd5b506040805190810160405280600381526020017f434445000000000000000000000000000000000000000000000000000000000081525060009080519060200190610061929190610067565b5061010c565b828054600181600116156101000203166002900490600052602060002090601f016020900481019282601f106100a857805160ff19168380011785556100d6565b828001600101855582156100d6579182015b828111156100d55782518255916020019190600101906100ba565b5b5090506100e391906100e7565b5090565b61010991905b808211156101055760008160009055506001016100ed565b5090565b90565b610d028061011b6000396000f3fe608060405260043610610062576000357c0100000000000000000000000000000000000000000000000000000000900463ffffffff16806306fdde031461006757806343953519146100f7578063f4c714b414610122578063fd1cd6dc14610354575b600080fd5b34801561007357600080fd5b5061007c6105e1565b6040518080602001828103825283818151815260200191508051906020019080838360005b838110156100bc5780820151818401526020810190506100a1565b50505050905090810190601f1680156100e95780820380516001836020036101000a031916815260200191505b509250505060405180910390f35b34801561010357600080fd5b5061010c61067f565b6040518082815260200191505060405180910390f35b34801561012e57600080fd5b5061015b6004803603602081101561014557600080fd5b8101908080359060200190929190505050610685565b60405180806020018060200180602001878152602001806020018673ffffffffffffffffffffffffffffffffffffffff1673ffffffffffffffffffffffffffffffffffffffff16815260200185810385528b818151815260200191508051906020019080838360005b838110156101df5780820151818401526020810190506101c4565b50505050905090810190601f16801561020c5780820380516001836020036101000a031916815260200191505b5085810384528a818151815260200191508051906020019080838360005b8381101561024557808201518184015260208101905061022a565b50505050905090810190601f1680156102725780820380516001836020036101000a031916815260200191505b50858103835289818151815260200191508051906020019080838360005b838110156102ab578082015181840152602081019050610290565b50505050905090810190601f1680156102d85780820380516001836020036101000a031916815260200191505b50858103825287818151815260200191508051906020019080838360005b838110156103115780820151818401526020810190506102f6565b50505050905090810190601f16801561033e5780820380516001836020036101000a031916815260200191505b509a505050505050505050505060405180910390f35b34801561036057600080fd5b506105df6004803603608081101561037757600080fd5b810190808035906020019064010000000081111561039457600080fd5b8201836020820111156103a657600080fd5b803590602001918460018302840111640100000000831117156103c857600080fd5b91908080601f016020809104026020016040519081016040528093929190818152602001838380828437600081840152601f19601f8201169050808301925050505050505091929192908035906020019064010000000081111561042b57600080fd5b82018360208201111561043d57600080fd5b8035906020019184600183028401116401000000008311171561045f57600080fd5b91908080601f016020809104026020016040519081016040528093929190818152602001838380828437600081840152601f19601f820116905080830192505050505050509192919290803590602001906401000000008111156104c257600080fd5b8201836020820111156104d457600080fd5b803590602001918460018302840111640100000000831117156104f657600080fd5b91908080601f016020809104026020016040519081016040528093929190818152602001838380828437600081840152601f19601f8201169050808301925050505050505091929192908035906020019064010000000081111561055957600080fd5b82018360208201111561056b57600080fd5b8035906020019184600183028401116401000000008311171561058d57600080fd5b91908080601f016020809104026020016040519081016040528093929190818152602001838380828437600081840152601f19601f820116905080830192505050505050509192919290505050610941565b005b60008054600181600116156101000203166002900480601f0160208091040260200160405190810160405280929190818152602001828054600181600116156101000203166002900480156106775780601f1061064c57610100808354040283529160200191610677565b820191906000526020600020905b81548152906001019060200180831161065a57829003601f168201915b505050505081565b60015481565b6002602052806000526040600020600091509050806000018054600181600116156101000203166002900480601f0160208091040260200160405190810160405280929190818152602001828054600181600116156101000203166002900480156107315780601f1061070657610100808354040283529160200191610731565b820191906000526020600020905b81548152906001019060200180831161071457829003601f168201915b505050505090806001018054600181600116156101000203166002900480601f0160208091040260200160405190810160405280929190818152602001828054600181600116156101000203166002900480156107cf5780601f106107a4576101008083540402835291602001916107cf565b820191906000526020600020905b8154815290600101906020018083116107b257829003601f168201915b505050505090806002018054600181600116156101000203166002900480601f01602080910402602001604051908101604052809291908181526020018280546001816001161561010002031660029004801561086d5780601f106108425761010080835404028352916020019161086d565b820191906000526020600020905b81548152906001019060200180831161085057829003601f168201915b505050505090806003015490806004018054600181600116156101000203166002900480601f0160208091040260200160405190810160405280929190818152602001828054600181600116156101000203166002900480156109115780601f106108e657610100808354040283529160200191610911565b820191906000526020600020905b8154815290600101906020018083116108f457829003601f168201915b5050505050908060050160009054906101000a900473ffffffffffffffffffffffffffffffffffffffff16905086565b6000835111151561095157600080fd5b6000845111151561096157600080fd5b600073ffffffffffffffffffffffffffffffffffffffff163373ffffffffffffffffffffffffffffffffffffffff161415151561099d57600080fd5b600082511115156109ad57600080fd5b60016000815480929190600101919050555060006001905060008090505b600154811015610b0857856040516020018082805190602001908083835b602083101515610a0e57805182526020820191506020810190506020830392506109e9565b6001836020036101000a03801982511681845116808217855250505050505090500191505060405160208183030381529060405280519060200120600260008381526020019081526020016000206000016040516020018082805460018160011615610100020316600290048015610abd5780601f10610a9b576101008083540402835291820191610abd565b820191906000526020600020905b815481529060010190602001808311610aa9575b5050915050604051602081830303815290604052805190602001201415610afb57600160026000838152602001908152602001600020600301540191505b80806001019150506109cb565b5060c0604051908101604052808681526020018581526020018481526020018281526020018381526020013373ffffffffffffffffffffffffffffffffffffffff168152506002600060015481526020019081526020016000206000820151816000019080519060200190610b7e929190610c31565b506020820151816001019080519060200190610b9b929190610c31565b506040820151816002019080519060200190610bb8929190610c31565b50606082015181600301556080820151816004019080519060200190610bdf929190610c31565b5060a08201518160050160006101000a81548173ffffffffffffffffffffffffffffffffffffffff021916908373ffffffffffffffffffffffffffffffffffffffff1602179055509050505050505050565b828054600181600116156101000203166002900490600052602060002090601f016020900481019282601f10610c7257805160ff1916838001178555610ca0565b82800160010185558215610ca0579182015b82811115610c9f578251825591602001919060010190610c84565b5b509050610cad9190610cb1565b5090565b610cd391905b80821115610ccf576000816000905550600101610cb7565b5090565b9056fea165627a7a72305820d322f68087cf08fdd34bff4030e857a1ff583006ab675476abbc3324bf4074220029",
  "source": "pragma solidity >=0.4.22 <0.8.18 ;\r\n\r\ncontract CDE {\r\n    string public name;\r\n    uint public fileCount = 0;\r\n    mapping(uint => File) public files;\r\n\r\n    struct File{\r\n        string name;\r\n        string hash;\r\n        string description;\r\n        uint version;\r\n        string url;\r\n        address uploader;\r\n    }\r\n\r\n    constructor() public {\r\n        name = \"CDE\";\r\n    }\r\n\r\n    function registerFile(string memory _name, string memory _hash, string memory _description, string memory _url) public {\r\n    // Make sure the file hash exists\r\n    require(bytes(_hash).length > 0);\r\n    // Make sure file name exists\r\n    require(bytes(_name).length > 0);\r\n    // Make sure uploader address exists\r\n    require(msg.sender != address(0));\r\n    // Make sure file description exists\r\n    require(bytes(_description).length > 0);\r\n    \r\n    // Increment file id\r\n    fileCount ++;\r\n    // Set version number\r\n    uint version = 1;\r\n    for (uint i = 0; i < fileCount; i++) {\r\n        if (keccak256(abi.encodePacked(files[i].name)) == keccak256(abi.encodePacked(_name))) {\r\n            version = files[i].version + 1;\r\n        }\r\n    }\r\n    // Add file to contract\r\n    files[fileCount] = File(_name, _hash, _description, version, _url, msg.sender);\r\n}\r\n}\r\n\r\n",
  "sourcePath": "D:/Scripts_and_stuff/Poli/BIMchain4Site4.0/bimchain4site4.0/src/blockchain/contracts/CDE.sol",
  "compiler": {
    "name": "solc",
    "version": "0.5.0+commit.1d4f565a.Emscripten.clang"
  },
  "schemaVersion": "3.0.2",
  "updatedAt": "2023-02-11T15:09:48.571Z",
  "devdoc": {
    "methods": {}
  },
  "userdoc": {
    "methods": {}
  }
}