{
  "contractName": "CDE",
  "abi": [
    {
      "inputs": [],
      "payable": false,
      "stateMutability": "nonpayable",
      "type": "constructor"
    },
    {
      "constant": true,
      "inputs": [],
      "name": "fileCount",
      "outputs": [
        {
          "internalType": "int256",
          "name": "",
          "type": "int256"
        }
      ],
      "payable": false,
      "stateMutability": "view",
      "type": "function"
    },
    {
      "constant": true,
      "inputs": [
        {
          "internalType": "int256",
          "name": "",
          "type": "int256"
        }
      ],
      "name": "files",
      "outputs": [
        {
          "internalType": "string",
          "name": "name",
          "type": "string"
        },
        {
          "internalType": "string",
          "name": "hash",
          "type": "string"
        },
        {
          "internalType": "int256",
          "name": "version",
          "type": "int256"
        },
        {
          "internalType": "string",
          "name": "url",
          "type": "string"
        },
        {
          "internalType": "address",
          "name": "author",
          "type": "address"
        },
        {
          "internalType": "uint256",
          "name": "timestamp",
          "type": "uint256"
        }
      ],
      "payable": false,
      "stateMutability": "view",
      "type": "function"
    },
    {
      "constant": true,
      "inputs": [],
      "name": "name",
      "outputs": [
        {
          "internalType": "string",
          "name": "",
          "type": "string"
        }
      ],
      "payable": false,
      "stateMutability": "view",
      "type": "function"
    },
    {
      "constant": false,
      "inputs": [
        {
          "internalType": "string",
          "name": "_name",
          "type": "string"
        },
        {
          "internalType": "string",
          "name": "_hash",
          "type": "string"
        },
        {
          "internalType": "string",
          "name": "_url",
          "type": "string"
        }
      ],
      "name": "registerFile",
      "outputs": [],
      "payable": false,
      "stateMutability": "nonpayable",
      "type": "function"
    },
    {
      "constant": true,
      "inputs": [
        {
          "internalType": "int256",
          "name": "_id",
          "type": "int256"
        }
      ],
      "name": "getFile",
      "outputs": [
        {
          "internalType": "string",
          "name": "",
          "type": "string"
        },
        {
          "internalType": "string",
          "name": "",
          "type": "string"
        },
        {
          "internalType": "int256",
          "name": "",
          "type": "int256"
        },
        {
          "internalType": "string",
          "name": "",
          "type": "string"
        },
        {
          "internalType": "address",
          "name": "",
          "type": "address"
        },
        {
          "internalType": "uint256",
          "name": "",
          "type": "uint256"
        }
      ],
      "payable": false,
      "stateMutability": "view",
      "type": "function"
    },
    {
      "constant": true,
      "inputs": [
        {
          "internalType": "uint256",
          "name": "_tokenId",
          "type": "uint256"
        }
      ],
      "name": "tokenURI",
      "outputs": [
        {
          "internalType": "string",
          "name": "",
          "type": "string"
        }
      ],
      "payable": false,
      "stateMutability": "view",
      "type": "function"
    }
  ],
  "bytecode": "0x608060405260006001553480156200001657600080fd5b506040518060400160405280600381526020017f434445000000000000000000000000000000000000000000000000000000000081525060009080519060200190620000649291906200006b565b506200011a565b828054600181600116156101000203166002900490600052602060002090601f016020900481019282601f10620000ae57805160ff1916838001178555620000df565b82800160010185558215620000df579182015b82811115620000de578251825591602001919060010190620000c1565b5b509050620000ee9190620000f2565b5090565b6200011791905b8082111562000113576000816000905550600101620000f9565b5090565b90565b611146806200012a6000396000f3fe608060405234801561001057600080fd5b50600436106100625760003560e01c806306fdde03146100675780633f0baeef146100ea57806343953519146102aa57806360ffc335146102c8578063c87b56dd146104b1578063eb2f22ac14610558575b600080fd5b61006f610718565b6040518080602001828103825283818151815260200191508051906020019080838360005b838110156100af578082015181840152602081019050610094565b50505050905090810190601f1680156100dc5780820380516001836020036101000a031916815260200191505b509250505060405180910390f35b6101166004803603602081101561010057600080fd5b81019080803590602001909291905050506107b6565b604051808060200180602001878152602001806020018673ffffffffffffffffffffffffffffffffffffffff1673ffffffffffffffffffffffffffffffffffffffff16815260200185815260200184810384528a818151815260200191508051906020019080838360005b8381101561019c578082015181840152602081019050610181565b50505050905090810190601f1680156101c95780820380516001836020036101000a031916815260200191505b50848103835289818151815260200191508051906020019080838360005b838110156102025780820151818401526020810190506101e7565b50505050905090810190601f16801561022f5780820380516001836020036101000a031916815260200191505b50848103825287818151815260200191508051906020019080838360005b8381101561026857808201518184015260208101905061024d565b50505050905090810190601f1680156102955780820380516001836020036101000a031916815260200191505b50995050505050505050505060405180910390f35b6102b2610a75565b6040518082815260200191505060405180910390f35b6104af600480360360608110156102de57600080fd5b81019080803590602001906401000000008111156102fb57600080fd5b82018360208201111561030d57600080fd5b8035906020019184600183028401116401000000008311171561032f57600080fd5b91908080601f016020809104026020016040519081016040528093929190818152602001838380828437600081840152601f19601f8201169050808301925050505050505091929192908035906020019064010000000081111561039257600080fd5b8201836020820111156103a457600080fd5b803590602001918460018302840111640100000000831117156103c657600080fd5b91908080601f016020809104026020016040519081016040528093929190818152602001838380828437600081840152601f19601f8201169050808301925050505050505091929192908035906020019064010000000081111561042957600080fd5b82018360208201111561043b57600080fd5b8035906020019184600183028401116401000000008311171561045d57600080fd5b91908080601f016020809104026020016040519081016040528093929190818152602001838380828437600081840152601f19601f820116905080830192505050505050509192919290505050610a7b565b005b6104dd600480360360208110156104c757600080fd5b8101908080359060200190929190505050610d3e565b6040518080602001828103825283818151815260200191508051906020019080838360005b8381101561051d578082015181840152602081019050610502565b50505050905090810190601f16801561054a5780820380516001836020036101000a031916815260200191505b509250505060405180910390f35b6105846004803603602081101561056e57600080fd5b8101908080359060200190929190505050610dfc565b604051808060200180602001878152602001806020018673ffffffffffffffffffffffffffffffffffffffff1673ffffffffffffffffffffffffffffffffffffffff16815260200185815260200184810384528a818151815260200191508051906020019080838360005b8381101561060a5780820151818401526020810190506105ef565b50505050905090810190601f1680156106375780820380516001836020036101000a031916815260200191505b50848103835289818151815260200191508051906020019080838360005b83811015610670578082015181840152602081019050610655565b50505050905090810190601f16801561069d5780820380516001836020036101000a031916815260200191505b50848103825287818151815260200191508051906020019080838360005b838110156106d65780820151818401526020810190506106bb565b50505050905090810190601f1680156107035780820380516001836020036101000a031916815260200191505b50995050505050505050505060405180910390f35b60008054600181600116156101000203166002900480601f0160208091040260200160405190810160405280929190818152602001828054600181600116156101000203166002900480156107ae5780601f10610783576101008083540402835291602001916107ae565b820191906000526020600020905b81548152906001019060200180831161079157829003601f168201915b505050505081565b606080600060606000806107c8611020565b600260008981526020019081526020016000206040518060c0016040529081600082018054600181600116156101000203166002900480601f01602080910402602001604051908101604052809291908181526020018280546001816001161561010002031660029004801561087f5780601f106108545761010080835404028352916020019161087f565b820191906000526020600020905b81548152906001019060200180831161086257829003601f168201915b50505050508152602001600182018054600181600116156101000203166002900480601f0160208091040260200160405190810160405280929190818152602001828054600181600116156101000203166002900480156109215780601f106108f657610100808354040283529160200191610921565b820191906000526020600020905b81548152906001019060200180831161090457829003601f168201915b5050505050815260200160028201548152602001600382018054600181600116156101000203166002900480601f0160208091040260200160405190810160405280929190818152602001828054600181600116156101000203166002900480156109cd5780601f106109a2576101008083540402835291602001916109cd565b820191906000526020600020905b8154815290600101906020018083116109b057829003601f168201915b505050505081526020016004820160009054906101000a900473ffffffffffffffffffffffffffffffffffffffff1673ffffffffffffffffffffffffffffffffffffffff1673ffffffffffffffffffffffffffffffffffffffff1681526020016005820154815250509050806000015181602001518260400151836060015184608001518560a001518595508494508292509650965096509650965096505091939550919395565b60015481565b6000825111610a8957600080fd5b6000835111610a9757600080fd5b600073ffffffffffffffffffffffffffffffffffffffff163373ffffffffffffffffffffffffffffffffffffffff161415610ad157600080fd5b60016000815480929190600101919050555060006001905060008090505b600154811215610c2a57846040516020018082805190602001908083835b60208310610b305780518252602082019150602081019050602083039250610b0d565b6001836020036101000a03801982511681845116808217855250505050505090500191505060405160208183030381529060405280519060200120600260008381526020019081526020016000206000016040516020018082805460018160011615610100020316600290048015610bdf5780601f10610bbd576101008083540402835291820191610bdf565b820191906000526020600020905b815481529060010190602001808311610bcb575b5050915050604051602081830303815290604052805190602001201415610c1d57600160026000838152602001908152602001600020600201540191505b8080600101915050610aef565b506040518060c001604052808581526020018481526020018281526020018381526020013373ffffffffffffffffffffffffffffffffffffffff168152602001428152506002600060015481526020019081526020016000206000820151816000019080519060200190610c9f92919061106c565b506020820151816001019080519060200190610cbc92919061106c565b50604082015181600201556060820151816003019080519060200190610ce392919061106c565b5060808201518160040160006101000a81548173ffffffffffffffffffffffffffffffffffffffff021916908373ffffffffffffffffffffffffffffffffffffffff16021790555060a0820151816005015590505050505050565b60606000829050600260008281526020019081526020016000206003018054600181600116156101000203166002900480601f016020809104026020016040519081016040528092919081815260200182805460018160011615610100020316600290048015610def5780601f10610dc457610100808354040283529160200191610def565b820191906000526020600020905b815481529060010190602001808311610dd257829003601f168201915b5050505050915050919050565b6002602052806000526040600020600091509050806000018054600181600116156101000203166002900480601f016020809104026020016040519081016040528092919081815260200182805460018160011615610100020316600290048015610ea85780601f10610e7d57610100808354040283529160200191610ea8565b820191906000526020600020905b815481529060010190602001808311610e8b57829003601f168201915b505050505090806001018054600181600116156101000203166002900480601f016020809104026020016040519081016040528092919081815260200182805460018160011615610100020316600290048015610f465780601f10610f1b57610100808354040283529160200191610f46565b820191906000526020600020905b815481529060010190602001808311610f2957829003601f168201915b505050505090806002015490806003018054600181600116156101000203166002900480601f016020809104026020016040519081016040528092919081815260200182805460018160011615610100020316600290048015610fea5780601f10610fbf57610100808354040283529160200191610fea565b820191906000526020600020905b815481529060010190602001808311610fcd57829003601f168201915b5050505050908060040160009054906101000a900473ffffffffffffffffffffffffffffffffffffffff16908060050154905086565b6040518060c0016040528060608152602001606081526020016000815260200160608152602001600073ffffffffffffffffffffffffffffffffffffffff168152602001600081525090565b828054600181600116156101000203166002900490600052602060002090601f016020900481019282601f106110ad57805160ff19168380011785556110db565b828001600101855582156110db579182015b828111156110da5782518255916020019190600101906110bf565b5b5090506110e891906110ec565b5090565b61110e91905b8082111561110a5760008160009055506001016110f2565b5090565b9056fea265627a7a72315820418a87f090f340f9a0ab246ef1040eee3b7e83be4d1106ac1cdeeb98a02be6dd64736f6c63430005100032",
  "source": "// SPDX-License-Identifier: MIT\r\npragma solidity >=0.4.22 <0.8.20;\r\n\r\ncontract CDE {\r\n  string public name;\r\n  int public fileCount = 0;\r\n  mapping(int => File) public files;\r\n  File f;\r\n\r\n  struct File {\r\n    string name;\r\n    string hash;\r\n    int version;\r\n    string url;\r\n    address author;\r\n    uint timestamp;\r\n  }\r\n\r\n  constructor() public {\r\n    name = 'CDE';\r\n  }\r\n\r\n  function registerFile(\r\n    string memory _name,\r\n    string memory _hash,\r\n    string memory _url\r\n  ) public {\r\n    // Make sure the file hash exists\r\n    require(bytes(_hash).length > 0);\r\n    // Make sure file name exists\r\n    require(bytes(_name).length > 0);\r\n    // Make sure uploader address exists\r\n    require(msg.sender != address(0));\r\n\r\n    // Increment file id\r\n    fileCount++;\r\n    // Set version number\r\n    int version = 1;\r\n    for (int i = 0; i < fileCount; i++) {\r\n      if (keccak256(abi.encodePacked(files[i].name)) == keccak256(abi.encodePacked(_name))) {\r\n        version = files[i].version + 1;\r\n      }\r\n    }\r\n    // Add file to contract\r\n    files[fileCount] = File(_name, _hash, version, _url, msg.sender, block.timestamp);\r\n  }\r\n\r\n  function getFile(int _id)\r\n    public\r\n    view\r\n    returns (\r\n      string memory,\r\n      string memory,\r\n      int,\r\n      string memory,\r\n      address,\r\n      uint  \r\n    )\r\n  {\r\n    File memory file = files[_id];\r\n    return (file.name, file.hash, file.version, file.url, file.author, file.timestamp);\r\n  }\r\n\r\n  // function to interact with OpenSea\r\n  function tokenURI(uint256 _tokenId) public view returns (string memory) {\r\n    int index = int(_tokenId);\r\n    return files[index].url;\r\n  }\r\n}\r\n",
  "sourcePath": "D:\\Scripts_and_stuff\\Poli\\BIMchain4Site4.0\\bimchain4site4.0\\src\\blockchain\\contracts\\CDE.sol",
  "compiler": {
    "name": "solc",
    "version": "0.5.16+commit.9c3226ce.Emscripten.clang"
  },
  "schemaVersion": "3.4.11",
  "updatedAt": "2023-02-24T16:11:02.974Z",
  "networkType": "ethereum",
  "devdoc": {
    "methods": {}
  },
  "userdoc": {
    "methods": {}
  }
}